:020000040800F2
:100000000000022065150008E9140008EB14000840
:10001000ED140008EF140008F114000800000000BF
:10002000000000000000000000000000F3140008C1
:10003000F514000800000000F7140008F914000887
:10004000B5150008B5150008B5150008B515000868
:10005000B5150008B5150008B5150008B515000858
:10006000B5150008B5150008B5150008B515000848
:10007000B5150008B5150008B5150008B515000838
:10008000B5150008B5150008FD140008B5150008E1
:10009000B5150008B5150008B5150008B515000818
:1000A000B5150008B5150008B5150008B515000808
:1000B000B5150008B5150008B5150008B5150008F8
:1000C000B5150008B5150008B5150008B5150008E8
:1000D000B5150008B5150008B5150008B5150008D8
:1000E000B5150008B5150008B5150008B5150008C8
:1000F000B5150008B5150008B5150008B5150008B8
:10010000B5150008B5150008B5150008B5150008A7
:10011000B5150008B5150008B5150008B515000897
:10012000B5150008B5150008B5150008B515000887
:10013000B5150008B5150008B5150008B515000877
:10014000B5150008B5150008B5150008B515000867
:10015000B5150008B5150008B5150008B515000857
:10016000B5150008B5150008B5150008B515000847
:10017000B5150008B5150008B51500080000000009
:08018000B5150008B5150008D3
:1001880010B5054C237833B9044B13B10448AFF3C9
:1001980000800123237010BD0C0000200000000027
:1001A8001016000808B5034B1BB103490348AFF309
:1001B800008008BD00000000100000201016000894
:1001C80053B94AB9002908BF00281CBF4FF0FF31B6
:1001D8004FF0FF3000F07AB9ADF1080C6DE904CEAC
:1001E80000F006F8DDF804E0DDE9022304B070470A
:1001F8002DE9F0478C460D460446089E002B51D148
:100208008A4217466DD9B2FA82FEBEF1000F0BD0B2
:10021800CEF1200C01FA0EF520FA0CFC02FA0EF7CA
:100228004CEA050C00FA0EF44FEA174A250CBCFB01
:10023800FAF81FFA87F90AFB18CC45EA0C4508FBBF
:1002480009F3AB420AD9ED1908F1FF3280F0238196
:10025800AB4240F22081A8F102083D44ED1AA4B255
:10026800B5FBFAF00AFB105544EA054400FB09F90E
:10027800A14509D9E41900F1FF3380F00A81A145AD
:1002880040F2078102383C44A4EB090440EA0840E4
:100298000021002E61D024FA0EF40023346073602C
:1002A800BDE8F0878B4207D9002E54D0002186E89C
:1002B80021000846BDE8F087B3FA83F1002940F031
:1002C8008E80AB4202D3824200F2FA80841A65EB38
:1002D80003050120AC46002E3FD086E81010BDE88B
:1002E800F08712B90127B7FBF2F7B7FA87FEBEF11C
:1002F800000F34D1EB1B3A0C1FFA87FC0121B3FB2A
:10030800F2F8250C02FB183345EA03450CFB08F309
:10031800AB4207D9ED1908F1FF3002D2AB4200F227
:10032800D1808046ED1AA3B2B5FBF2F002FB10555E
:1003380043EA05440CFB00FCA44507D9E41900F185
:10034800FF3302D2A44500F2B8801846A4EB0C048F
:1003580040EA08409DE731463046BDE8F087CEF1D7
:10036800200405FA0EF307FA0EF720FA04F83A0CFF
:1003780025FA04F448EA0308B4FBF2F14FEA1845F9
:1003880002FB11441FFA87FC45EA044501FB0CF304
:10039800AB4200FA0EF409D9ED1901F1FF3080F0F3
:1003A8008A80AB4240F2878002393D44EB1A1FFA3B
:1003B80088F5B3FBF2F002FB103345EA034500FB76
:1003C8000CF3AB4207D9ED1900F1FF386FD2AB42FD
:1003D8006DD902383D44EB1A40EA01418FE7C1F17B
:1003E800200722FA07F88B4005FA01F448EA0303CC
:1003F80020FA07FE4FEA134CFD404EEA040EB5FB07
:10040800FCF94FEA1E440CFB19551FFA83F844EA1D
:10041800054509FB08F4AC4202FA01F200FA01FAB8
:1004280008D9ED1809F1FF3043D2AC4241D9A9F1FE
:1004380002091D442D1B1FFA8EFEB5FBFCF00CFBB8
:1004480010554EEA054400FB08F8A04507D9E41802
:1004580000F1FF3529D2A04527D902381C4440EACB
:100468000940A4EB0804A0FB02894C45C6464D464A
:1004780015D312D056B1BAEB0E0364EB050404FA97
:1004880007F7CB401F43CC40376074600021BDE8BC
:10049800F0871846F8E69046E0E6C245EAD2B8EB9F
:1004A800020E69EB03050138E4E72846D7E7404622
:1004B80091E78146BEE7014678E702383C4445E7C4
:1004C800084608E7A8F102083D442BE7704700BF3B
:1004D80038B50E4A0E4B054618784FF47A73B3FBBD
:1004E800F0F31068B0FBF3F000F0EAFA044658B9EC
:1004F8000F2D09D8024629464FF0FF3000F09EFA2A
:10050800044B20461D6038BD012038BD080000207E
:10051800000000200400002008B50B4B1A6842F4C4
:1005280000721A601A6842F480621A601A6842F40B
:1005380080721A60032000F06FFA0020FFF7C8FFEE
:1005480000F05AFF002008BD003C0240034A044B5B
:1005580011681B780B441360704700BF40000020EF
:1005680000000020014B1868704700BF40000020C1
:1005780038B50446002800F09B80056C25B900F0CA
:1005880057FF656484F83C50236CDB0600F18E80CD
:10059800236C23F4885323F0020343F002032364FB
:1005A800444B5A6822F440325A605A6861680A43D8
:1005B8005A60236821695A6822F480725A605A681E
:1005C80042EA01225A605A68A16822F040725A60D1
:1005D8005A680A435A609A68E16822F400629A608D
:1005E8009A680A439A603449A26A8A4252D0996842
:1005F80021F07061996099680A439A609A68E16A83
:1006080022F040529A609A680A439A609A68217E5A
:1006180022F002029A609A6842EA41029A6094F8CB
:100628002020002A3ED05A68616A42F400625A606B
:100638005A6822F460425A605A68013942EA4132E3
:100648005A60DA6AE16922F47002DA62DA6A013918
:1006580042EA0152DA629A6894F8301022F4007281
:100668009A609A6842EA41229A609A68616922F41B
:1006780080629A609A68002042EA81229A606064E7
:10068800236C23F0030343F001032364002384F85D
:100698003C3038BD9A6822F070629A609A6822F0FD
:1006A8004052B2E75A6822F40062C9E70120EDE738
:1006B800012038BD002301400100000F82B0002353
:1006C800019390F83C30012B67D0012380F83C302F
:1006D80003689A68D10705D59A68D20714D4002010
:1006E80002B070479A682E4942F001029A602D4A7A
:1006F8001268B2FBF1F202EB42020192019A002A5F
:10070800EAD0019A013AF8E7026C22F4E06222F09A
:10071800010242F4807202645A68510541BF026CBA
:1007280022F4405242F480520264026C12F4805265
:100738001CBF426C22F006024264002280F83C2072
:100748006FF022021A605A6842F0806242F020027A
:100758005A60154A516811F01F0F14491AD18B427B
:1007680006D001F580718B420BD15268D206B6D102
:10077800986810F04050B2D19A6842F080429A606E
:10078800AEE70B498B42AAD1526802F01F020F2A2A
:10079800EED9A4E78B42A2D1EAE70220A0E700BF86
:1007A80040420F00080000200023014000200140C3
:1007B800002201400368D86C70477047704738B50D
:1007C800036819685A688D0704462BD5900629D501
:1007D800226CD1065EBF226C42F4007222649A68D1
:1007E80012F0405F17D1227EAAB9DA6A12F4700FAC
:1007F80002D09A6852050ED45A6822F020025A6034
:10080800236C23F480732364236CDB045EBF236CA6
:1008180043F001032364204600F092FC23686FF044
:1008280012021A60236819685A684D0732D51006F3
:1008380030D5226CD1065EBF226C42F4005222648D
:100848009A6812F4401F1ED19A6B12F4401F02D00E
:100858009A68520517D45A68550514D49A6812F044
:10086800405F10D1227E72B95A6822F080025A6025
:10087800236C23F480532364236CD8055EBF236C58
:1008880043F001032364204600F0C4F823686FF0A6
:100898000C021A60236819685A68C9070FD55506EB
:1008A8000DD51B68D8070AD5236C43F4803323641D
:1008B8002046FFF782FF23686FF001021A60236861
:1008C80019685A6889060DD552010BD5626C6FF00C
:1008D800200542F00202626420461D60FFF76EFFA9
:1008E80023681D6038BD0000F7B50023019390F818
:1008F8003C30012B00F083800D6804688A6801236E
:10090800092D80F83C30AEB22AD906EB4603E768D9
:100918001E3B4FF0070E0EFA03FE27EA0E07E760AC
:10092800E76802FA03F33B43E3604A68062A4FEAA2
:10093800820325D81344676B591F1F238B4027EA6E
:1009480003036363626B06FA01F1114361632D4B84
:100958009C4234D0002380F83C30184603B0F0BDE8
:10096800276905EB45034FF0070E0EFA03FE27EA49
:100978000E072761276902FA03F33B432361D4E793
:100988000C2A0ED81344216BA3F123021F23934092
:1009980021EA03032363236B06FA02F21A43226354
:1009A800D5E71344E16A413B1F229A4021EA02023B
:1009B800E262E26A06FA03F11143E162C7E7122D27
:1009C80004D1114A536843F480035360A5F110031E
:1009D800012BBFD80C4A5368102D43F40003536011
:1009E800B8D10A4B0A4A1B68B3FBF2F20A235343F5
:1009F8000193019B002BADD0019B013BF8E702203E
:100A0800ACE700BF0020014000230140080000209F
:100A180040420F0070470000074AD36823F4E063A0
:100A28001B041B0C43F0BF63000243F4003300F4C3
:100A3800E0600343D360704700ED00E0174B30B52A
:100A4800DC68C4F30224C4F10703251D042B28BF66
:100A58000423062D4FF0010505FA03F303F1FF33D4
:100A68008CBF033C00241940A14005FA04F4013C62
:100A78002240002842EA01024FEA0212ADBF00F10B
:100A8800604000F00F00064B00F56140B5BFD2B2E0
:100A9800D2B21A5480F8002330BD00BF00ED00E048
:100AA80014ED00E0002808DB4209012300F01F00D4
:100AB80003FA00F0014B43F82200704700E100E020
:100AC8000138B0F1807F0AD2064B074A5860F021FE
:100AD80082F823100020072298601A6070470120CE
:100AE800704700BF10E000E000ED00E02DE9F04F96
:100AF80085B00B68DFF8AC81684ADFF8AC910193E8
:100B080000234FF0010E019C0EFA03FE0EEA0406C4
:100B1800B64540F0AE804C6824F01007022F16D17D
:100B28004FEAD30A00EB8A0A03F0070BDAF82050E1
:100B38004FEA8B0B4FF00F0C0CFA0BFC25EA0C0C50
:100B48000D6905FA0BF545EA0C05CAF820504FEA7D
:100B5800430A0325D0F800B005FA0AF5ED4304F07E
:100B6800030C0BEA050B0CFA0AFC013F4CEA0B0CD0
:100B7800012FC0F800C011D8876807EA050BCF68B5
:100B880007FA0AFC4CEA0B078760476827EA0E0E4B
:100B9800C4F300179F4047EA0E074760C7683D4007
:100BA8008F6807FA0AF73D43C560E50061D54FF045
:100BB800000BCDF80CB0D8F84470394D47F4804795
:100BC800C8F84470D8F8447007F480470397039F27
:100BD80023F0030707F1804707F59C3703F0030C60
:100BE800D7F808A04FEA8C0C4FF00F0E0EFA0CFE47
:100BF800A8422AEA0E0E43D005F58065A84241D0E6
:100C080005F58065A8423FD005F58065A8423DD02E
:100C180005F58065A8423BD048453BD005F5006501
:100C2800A84239D005F58065A84214BF08250725D4
:100C380005FA0CF545EA0E05BD601568F74314F48E
:100C4800803F0CBF3D4035431560556814F4003FA4
:100C58000CBF3D4035435560956814F4801F0CBFA8
:100C68003D4035439560D568A40254BF3D403543A7
:100C7800D5600133102B7FF444AF05B0BDE8F08F89
:100C88005D46D5E70125D3E70225D1E70325CFE760
:100C98000425CDE70525CBE70625C9E7003C01403B
:100CA8000000024000380240001402402DE9F341E0
:100CB800044618B9012002B0BDE8F0810368DD07D9
:100CC80010D42368980758D423681A0700F19A802B
:100CD80023685B0700F1B880A269002A40F01981F7
:100CE8000020E8E7A64B9A6802F00C02042A07D015
:100CF8009A6802F00C02082A0AD15B68590207D5E3
:100D08009F4B1B689A03DCD56368002BD9D1D1E7C8
:100D180063689B4DB3F5803F11D12B6843F4803352
:100D28002B60FFF71FFC964D06462B689B03C8D423
:100D3800FFF718FC801B6428F7D90320BBE7B3F53D
:100D4800A02F04D12B6843F480232B60E5E72A68A1
:100D580022F480322A602A6822F480222A60002B3A
:100D6800DFD1FFF7FFFB06462B689F03A9D5FFF7E6
:100D7800F9FB801B6428F7D9DFE7814B9A6812F0EA
:100D88000C0F07D09A6802F00C02082A11D15B6890
:100D98005E020ED47A4B1A68950702D5E268012ADA
:100DA80088D11A68216922F0F80242EAC1021A6061
:100DB8008AE7E268734BB2B101221A60FFF7D2FBEF
:100DC8006F4D06462B68980707D52B68226923F0D4
:100DD800F80343EAC2032B6076E7FFF7C3FB801BE7
:100DE8000228EFD9A9E71A60FFF7BCFB644D064655
:100DF8002B6899077FF568AFFFF7B4FB801B0228C3
:100E0800F6D99AE76269604B7AB101221A60FFF756
:100E1800A9FB5B4D06466B6F9F073FF559AFFFF780
:100E2800A1FB801B0228F6D987E71A60FFF79AFB17
:100E3800534D06466B6F98077FF54AAFFFF792FB55
:100E4800801B0228F6D978E74D4B1A6C12F08052B5
:100E580028D101921A6C42F080521A641B6C03F07C
:100E680080530193019B0126484D2B68D9051BD55A
:100E7800A368434D012B27D12B6F43F001032B6748
:100E8800FFF770FB3E4D074641F288382B6F9B07F2
:100E980039D5002E3FF420AF394A136C23F0805324
:100EA800136419E70026DFE72B6843F480732B608F
:100EB800FFF758FB07462B68DA05D9D4FFF752FB32
:100EC800C01B0228F7D938E7052B04D12B6F43F054
:100ED80004032B67D0E72A6F22F001022A672A6FE2
:100EE80022F004022A67002BCAD1FFF73BFB41F22C
:100EF800883807462B6F9807CBD5FFF733FBC01B05
:100F08004045F7D919E7FFF72DFBC01B4045BDD970
:100F180013E71B4DAB6803F00C03082B3FF4CAAE74
:100F28001B4E0023022A336034D1FFF71BFB074610
:100F38002B6899011ED4226AE3691343626A43EA63
:100F48008213E26A43EA0263A26A0D4C5208013A2C
:100F580043EA02436B6001233360FFF703FB054656
:100F680023689A013FF5BCAEFFF7FCFA401B022844
:100F7800F6D9E2E6FFF7F6FAC01B0228D8D9DCE674
:100F88000038024000004742800E4742007000408F
:100F980060004742FFF7E6FA04462B689B017FF59D
:100FA8009FAEFFF7DFFA001B0228F6D9C5E600BF9F
:100FB800134908B58B6803F00C03042B03D0082BE6
:100FC80003D0104808BD104808BD4A684B684968F6
:100FD80013F4800314BF0C480A48C1F3881118BFE2
:100FE800002302F03F02A1FB0001FFF7E9F8044BE0
:100FF8005B68C3F3014301335B00B0FBF3F008BD4A
:10100800003802400024F40000127A002DE9F04173
:101018000D46044610B90120BDE8F081444B1A681A
:1010280002F00F028A4228D321688F072DD4C807FF
:1010380040D43F4B1A6802F00F02954266D32268EB
:1010480051076CD4130707D53A4A2169936823F4EA
:10105800604343EAC1039360FFF7AAFF354B364A62
:101068009B68C3F30313D35CD840344B186000204B
:10107800FFF72EFA0020BDE8F081CAB21A701B688B
:1010880003F00F039942C6D1CEE72A4B11F0040FA3
:101098001EBF9A6842F4E0529A600E0742BF9A68EF
:1010A80042F460429A609A68A06822F0F002024313
:1010B8009A60BCE762681F4B012A1DD11B6813F4B4
:1010C800003FA8D01B4EB36823F003031343B3605B
:1010D800FFF748FA41F288380746B368626803F0B8
:1010E8000C03B3EB820FA4D0FFF73CFAC01B4045BA
:1010F800F3D90320BDE8F081911E01291B6802D8AD
:1011080013F0007FDDE713F0020FDAE7EAB21A7096
:101118001B6803F00F039D427FF47DAF8FE70549FD
:10112800E0688B6823F4E05303438B608AE700BFD1
:10113800003C024000380240281600080800002041
:10114800354838B503681B689A0749D5334C256874
:10115800FFF730FB2268324BDFED327A23F81500B7
:101168000132032A08BF002222602F4A9FED2F6A0E
:10117800128807EE102A5A88B8EEC77A27EE277A1F
:1011880007EE902AF8EEE77A294AC7EE276AC2EDF9
:10119800006A1A889B8807EE102AB8EEC77A254A93
:1011A80027EE267AC7EE067AC2ED007A07EE903A65
:1011B800F8EEE77A204B67EEA67ADFED206A87EE35
:1011C800867ADFED1F7A83ED007A37EE677A1D4B5A
:1011D800C7EE267AB3EE097A77EE877AC3ED007AFE
:1011E800194803681B689B0714D5FFF7E3FA174BE8
:1011F800DFED0E6A188083B207EE903A0C4BF8EEDA
:10120800E77A93ED007A124B67EE877A87EEA67A33
:1012180083ED007A38BD00BF8C0000203800002024
:10122800D4000020333353402A7AFF1F00F07F4553
:101238003000002028000020340000200AD7233B7B
:101248005C8F423F3C00002044000020DA00002070
:101258002C00002030B595B03022002108A800F0FD
:10126800CBF90021142203A800F0C6F900241C4B76
:1012780001941A6C42F080521A641B6C03F080537C
:101288000193019B174B02941A6842F480421A603A
:101298001B6803F480430293029B012308934FF4D5
:1012A800803309934FF480030225A8220F9308A8DE
:1012B80004231093119213930E951295FFF7F6FCE1
:1012C8000F2303934FF4A053069305214FF4805343
:1012D80003A8049505940793FFF798FE15B030BD51
:1012E8000038024000700040BFB5FFF715F900252F
:1012F800FFF7B0FF3A4B00951A6B3A4CDFF8F490C1
:1013080042F080021A631A6B02F080020092009A7F
:1013180001951A6B42F001021A631B6B102603F049
:10132800010332462946019302A8019B00F064F9A3
:101338002D4BA56001274FF003084FF4803A204653
:1013480084E808042761277684F82050E562C4F809
:101358002890E560C4F81C8084F830506761FFF776
:1013680007F902A9204602950397CDF81080FFF7E8
:10137800BBFA1123029302A9022320460393FFF725
:10138800B3FA02A920460296CDF80C80FFF7ACFA12
:1013980032462946154E02A800F02EF9144BB560C6
:1013A800304686E808043561377686F82050F562BD
:1013B800C6F82890F560F76186F830507761FFF736
:1013C800D7F802A9304602970397CDF81080FFF7A7
:1013D8008BFA2046FFF772F93046FFF76FF9FEE700
:1013E800003802408C00002000200140440000200A
:1013F800002101400100000F82B00C4B0021009138
:101408005A6C42F480425A645A6C02F48042009248
:10141800009A01911A6C42F080521A641B6C03F016
:1014280080530193019B02B0704700BF003802400F
:1014380010B514228AB0044600210DEB020000F01A
:10144800DBF82368224A934227D1224B00240194D7
:101458005A6C42F480725A645A6C02F48072019297
:10146800019A02941A6B42F001021A631B6B03F093
:1014780001030293029B0123059305A90323164840
:101488000693FFF733FB122022462146FFF7D6FAD0
:101498001220FFF707FB0AB010BD104A9342FAD199
:1014A8000C4B002403945A6C42F400725A645A6C30
:1014B80002F400720392039A04941A6B42F0010238
:1014C8001A631B6B03F001030493049B0223D3E705
:1014D8000020014000380240000002400021014085
:1014E8007047FEE7FEE7FEE7FEE770477047704784
:1014F800FFF72CB808B50448FFF761F90348BDE8C1
:101508000840FFF75CB900BF8C00002044000020B1
:101518000F49D1F8883043F47003C1F888300D4B77
:101528001A68002042F001021A6098601A6822F0D6
:10153800847222F480321A60074A5A601A6822F4C8
:1015480080221A60D8604FF000638B60704700BF3C
:1015580000ED00E00038024010300024DFF834D0FD
:10156800002103E00C4B5B58435004310B480C4BF3
:1015780042189A42F6D30B4A02E0002342F8043B91
:10158800094B9A42F9D3FFF7C3FF00F011F8FFF7B0
:10159800ABFE70470000022048160008000000203B
:1015A8000C0000200C000020DC000020FEE70000FA
:1015B80070B50D4E0D4CA41BA4100025A54209D1F1
:1015C8000B4E0C4C00F020F8A41BA4100025A542DB
:1015D80005D170BD56F8253098470135EEE756F825
:1015E800253098470135F2E74016000840160008F4
:1015F800401600084416000802440346934200D1EE
:10160800704703F8011BF9E7F8B500BFF8BC08BC40
:101618009E467047F8B500BFF8BC08BC9E467047A8
:10162800000000000000000001020304060708098A
:08163800C0EBFF7F0100000080
:04164000AD010008F0
:041644008901000810
:0C16480001000000100000000024F4006D
:040000050800156575
:00000001FF
