:020000040800F2
:100000000000022049150008DD140008DF14000874
:10001000E1140008E3140008E514000800000000E3
:10002000000000000000000000000000E7140008CD
:10003000E914000800000000EB140008ED140008AB
:1000400099150008991500089915000899150008D8
:1000500099150008991500089915000899150008C8
:1000600099150008991500089915000899150008B8
:1000700099150008991500089915000899150008A8
:100080009915000899150008991500089915000898
:10009000F114000899150008991500089915000831
:1000A0009915000899150008991500089915000878
:1000B0009915000899150008991500089915000868
:1000C0009915000899150008991500089915000858
:1000D0009915000899150008991500089915000848
:1000E0009915000899150008991500089915000838
:1000F0009915000899150008991500089915000828
:100100009915000899150008991500089915000817
:100110009915000899150008991500089915000807
:1001200099150008991500089915000899150008F7
:1001300099150008991500089915000899150008E7
:1001400099150008991500089915000899150008D7
:1001500099150008991500089915000899150008C7
:1001600099150008991500089915000899150008B7
:10017000991500089915000899150008000000005D
:0801800099150008991500080B
:1001880010B5054C237833B9044B13B10448AFF3C9
:1001980000800123237010BD08000020000000002B
:1001A800F415000808B5034B1BB103490348AFF326
:1001B800008008BD000000000C000020F4150008B5
:1001C80010B5084B044618684FF47A73B0FBF3F087
:1001D80000F044FC002221464FF0FF3000F0FEFB07
:1001E800002010BD0400002008B50B4B1A6842F42B
:1001F80000721A601A6842F480621A601A6842F43F
:1002080080721A60032000F0D7FB0020FFF7D8FFA8
:1002180001F006F9002008BD003C0240024A1368BC
:1002280001331360704700BF64000020014B186859
:10023800704700BF6400002037B50190FFF7F6FF54
:10024800019C631C054618BF0134FFF7EFFF401BF4
:10025800A042FAD303B030BD4A69012330B503FA8E
:1002680002F53C4BD3F8000240F00100C3F800024D
:10027800D3F8000220F47C50C3F80002D3F800023F
:100288004C6A40EA0420C3F80002D3F81C02EC438D
:100298002040C3F81C02C869002836D1D3F80C02E4
:1002A8002040C3F80C02D200C8688B8802F1804253
:1002B80002F5C84243EA0043C2F8403288680B8816
:1002C80043EA0043C2F844328B692248002B35D1F7
:1002D800D0F804322340C0F804320B691D4A8BBBA6
:1002E800D0F814321C40C0F814420B6A012B02BF2C
:1002F800D2F81C322B43C2F81C32D2F8003223F059
:100308000103C2F80032002030BD0128DCD1D3F847
:100318000C022843C3F80C020B68888840EA0340A3
:10032800D30003F1804303F5C8438A89C3F8400228
:10033800886842EA0042C3F84422C5E7D0F804328C
:100348002B43C8E7012B02BFD2F814322B43C2F863
:100358001432CAE70064004070B50446002872D021
:1003680090F83C3003F0FF021BB980F83D2001F003
:1003780073F8022384F83C3023681A6822F00202DA
:100388001A601A6842F001021A60FFF74FFF06462A
:1003980023685D6815F0010557D05A68D1074FD515
:1003A800A269012A1A680CBF42F0800222F080027A
:1003B8001A60E269012A1A680CBF42F0400222F072
:1003C80040021A60226A012A1A680CBF42F0200211
:1003D80022F020021A60626A012A1A680CBF42F0F1
:1003E800100222F010021A60A26A012A1A680CBFD1
:1003F80042F0080222F008021A60E26A012A1A682A
:100408000CBF42F0040222F004021A60E168A268FC
:100418000A4321690A4361690A43616801390A4349
:10042800DA611A6822F001021A60FFF7FFFE05463A
:1004380023685A68D20713D4586810F001001BD0FB
:10044800042384F83C30012070BDFFF7EFFE801BC9
:100458000A289DD9032084F83C0084F83D5070BDDB
:10046800FFF7E4FE401B0A28E2D90320002384F8A2
:100478003C0084F83D3070BD0123206484F83C3092
:1004880070BD000002682DE9F84393685B010446DB
:100498000F4606D493681D0103D49368D80040F131
:1004A800B18094F83D30012B00F0B280012384F82C
:1004B8003D3094F83C30DBB2322B66D0622B66D0EC
:1004C800222B66D1422384F83C309368590162D4C8
:1004D800936813F0006F14BF012602264FEA061E28
:1004E80002EB0E03206BD3F880118568D0F80CC09E
:1004F80001F00101C3F88011002D4ED10568D3F831
:1005080080114CEA45550D43C3F88051D3F8845106
:100518000169DFF80881DFF8089101F00F0125F083
:100528000F050161C3F88451D3F884512943C3F8F6
:10053800841172444169C2F888118169C2F88C112A
:10054800D3F8802142F00102C3F88021FFF76EFE44
:100558000546314A23689B68002E45D132EA0303D9
:1005680014BF0123002313BB94F83C30DBB2522B99
:1005780042D0722B42D0422B42D12223002084F851
:100588003C3084F83D00BDE8F88352239BE7722392
:1005980099E7122397E70026A0E74168D3F88081FE
:1005A80045EA0C0545EAC10545EA0805ACE77B1CA8
:1005B800D0D05FB9032384F83C30236866B1012E9C
:1005C8000CBF4FF400424FF4000206E0FFF72EFE86
:1005D800401B8742BDD2EDE780229A60002384F851
:1005E8003D300320BDE8F883012E02D139EA030328
:1005F800B6E738EA0303B3E73223BFE76223BDE770
:100608000123BBE7042384F83C300120BDE8F883CC
:100618000220BDE8F88300BF0300000400000310B7
:100628000003000810B5002936D190F83C30222B81
:1006380050D090F83C30422B4CD090F83C30622B94
:1006480048D090F83C30722B44D090F83D30012BC4
:1006580040D0012380F83D3090F83C30DBB229BB14
:10066800322B2BD0522B2BD0122B0CBF4223222300
:1006780080F83C30026800230364546944F40F4452
:1006880044F00104546180F83D30E9B9536943F0FE
:100698000A035361084610BD0129D6D190F83C30B1
:1006A800322B17D090F83C30522BC5E7222B05D0BF
:1006B800422B05D0122B05D15223D9E76223D7E765
:1006C8007223D5E73223D3E7516941F050015161D4
:1006D800184610BD022010BD704738B5426B836BB9
:1006E800002908BF1346026802EB0114D4F8B05180
:1006F80005F004059D60002D51D1D4F8B0516D0D61
:100708001D60D4F8B05105F00205DD60D4F8B4518D
:10071800D4F8B4411962C4F30724DC6102EB011474
:1007280005F00F051D61D4F8B8511D75D4F8B851FE
:100738002D0A5D75D4F8B8512D0C9D75D4F8B851B3
:100748002D0EDD75D4F8BC511D76D4F8BC512D0A98
:100758005D76D4F8BC512D0C9D76D4F8BC41240E9E
:10076800DC76202301BBD360536923F00A0353616D
:1007780090F83C3003F0EF03222B01BF0268536965
:1007880023F40F43536190F83C30DBB2D1B9622BAC
:100798000FD0722B14D0422B1ED112230AE0D4F8AA
:1007A800B051ED085D60ACE71361536923F0500365
:1007B800DDE7322380F83C3000F01AFE002038BD17
:1007C8005223F7E7622B03D0722B03D0522BE3E7B7
:1007D8002223EFE74223EDE70123EBE77047000010
:1007E800036870B5DD685A6915F01005044606D02F
:1007F80012F008051EBF1022DA604FF4007519695F
:100808005A69C90605D5520642BF102245F48065CB
:100818001A615A69D60735D59E68634A98689968F7
:10082800B24305D0614A824302D0614A8A4329D142
:10083800986899689A68800704D4890502D4960351
:1008480040F190805A6922F001025A6194F83C20E4
:10085800122A02BF5A6922F40F425A6194F83C30B6
:10086800DBB2522B78D0722B78D0422B78D122234E
:1008780084F83C302046FFF72FFF22684D4B9168E3
:100888000B4393602368DA685B69900705D0990782
:1008980003D500212046FFF720FF23681A695B690A
:1008A800920705D0DE0603D501212046FFF715FF84
:1008B800236C1D4323682564986959695A69C007E0
:1008C80007D5CE0505D5150442BF226C42F00102BA
:1008D8002264986959695A69800707D5890505D539
:1008E800120442BF226C42F00202226498695969DC
:1008F8005A69460707D54D0505D5100442BF226C35
:1009080042F004022264986959695A6910F0700F1C
:1009180011D009050FD512040DD59A6902F070029D
:10092800302A35D021D8102A29D0202A2CD09A69EB
:1009380022F070029A61226C6AB104225A60012284
:1009480084F83C205A6922F40F4222F05B025A6173
:100958002046FFF743FF70BD322389E7622387E70C
:10096800012385E745F4006587E7502A14D0602AFB
:1009780016D0402ADBD1226C42F0400202E0226C01
:1009880042F008022264D2E7226C42F01002F9E732
:10099800226C42F02002F5E7226C42F08002F1E777
:1009A800226C42F48072EDE70300000400030008A3
:1009B8000000031019050100074AD36823F4E06317
:1009C8001B041B0C43F0BF63000243F4003300F424
:1009D800E0600343D360704700ED00E0174B30B58B
:1009E800DC68C4F30224C4F10703251D042B28BFC7
:1009F8000423062D4FF0010505FA03F303F1FF3335
:100A08008CBF033C00241940A14005FA04F4013CC2
:100A18002240002842EA01024FEA0212AFBF00F169
:100A2800604000F00F00064BD2B2A5BF00F5614050
:100A3800D2B21A5480F8002330BD00BF00ED00E0A8
:100A480014ED00E04209012300F01F0003FA00F052
:100A5800014B43F82200704700E100E00138B0F193
:100A6800807F0AD2064B074A5860F02182F823108B
:100A78000020072298601A6070470120704700BF65
:100A880010E000E000ED00E02DE9F04F85B00B68C4
:100A9800DFF8AC81684ADFF8AC91019300234FF08E
:100AA800010E019C0EFA03FE0EEA0406B64540F05C
:100AB800AE804C6824F01007022F16D14FEAD30AF3
:100AC80000EB8A0A03F0070BDAF820504FEA8B0B89
:100AD8004FF00F0C0CFA0BFC25EA0C0C0D6905FA0B
:100AE8000BF545EA0C05CAF820504FEA430A0325DE
:100AF800D0F800B005FA0AF5ED4304F0030C0BEA50
:100B0800050B0CFA0AFC013F4CEA0B0C012FC0F84C
:100B180000C011D8876807EA050BCF6807FA0AFCF6
:100B28004CEA0B078760476827EA0E0EC4F30017E4
:100B38009F4047EA0E074760C7683D408F6807FA3D
:100B48000AF73D43C560E50061D54FF0000BCDF8CD
:100B58000CB0D8F84470394D47F48047C8F8447051
:100B6800D8F8447007F480470397039F23F00307DE
:100B780007F1804707F59C3703F0030CD7F808A066
:100B88004FEA8C0C4FF00F0E0EFA0CFEA8422AEA20
:100B98000E0E43D005F58065A84241D005F5806565
:100BA800A8423FD005F58065A8423DD005F580658F
:100BB800A8423BD048453BD005F50065A84239D04E
:100BC80005F58065A84214BF0825072505FA0CF528
:100BD80045EA0E05BD601568F74314F4803F0CBF65
:100BE8003D4035431560556814F4003F0CBF3D4047
:100BF80035435560956814F4801F0CBF3D4035435C
:100C08009560D568A40254BF3D403543D560013393
:100C1800102B7FF444AF05B0BDE8F08F5D46D5E7F3
:100C28000125D3E70225D1E70325CFE70425CDE742
:100C38000525CBE70625C9E7003C01400000024036
:100C480000380240001402400369194214BF012011
:100C5800002070470AB1816170470904FBE7000072
:100C68000368F7B50446D8073BD42368990700F111
:100C7800868023681E0700F1D18023685D072AD586
:100C8800002301938E4B8F4D1A6C42F080521A64E8
:100C98001B6C03F080530193019B2B6843F4807312
:100CA8002B60FFF7C3FA06462B68DA0540F1D880B7
:100CB800A368834D012B40F0DA802B6F43F00103CA
:100CC8002B67FFF7B3FA7E4D064641F288372B6F44
:100CD8009B0740F1ED80A269002A40F0F9800020CE
:100CE80015E0774B9A6802F00C02042A07D09A683C
:100CF80002F00C02082A0CD15B685A0209D5704B25
:100D08001B689B03B1D56368002BAED1012003B0EB
:100D1800F0BD63686A4DB3F5803F11D12B6843F489
:100D280080332B60FFF782FA654D06462B689F03D8
:100D38009BD4FFF77BFA801B6428F7D90320E6E7EA
:100D4800B3F5A02F04D12B6843F480232B60E5E78B
:100D58002A6822F480322A602A6822F480222A60D3
:100D6800002BDFD1FFF762FA06462B6898037FF560
:100D78007CAFFFF75BFA801B6428F6D9DEE7504B9F
:100D88009A6812F00C0F07D09A6802F00C02082A31
:100D980016D15B68590213D4494B1A68920702D5D9
:100DA800E268012AB2D11868F82292FAA2F2B2FADD
:100DB80082F122698A4020F0F8010A431A6058E754
:100DC800E268414BDAB101221A60FFF72FFA3C4D75
:100DD80006462B689B070CD52968F82393FAA3F3DA
:100DE800B3FA83F22369934021F0F80213432B608E
:100DF8003FE7FFF71BFA801B0228EAD99EE71A6033
:100E0800FFF714FA2E4D06462B689F077FF531AF82
:100E1800FFF70CFA801B0228F6D98FE762692B4B83
:100E28007AB101221A60FFF701FA254D06466B6F69
:100E380098073FF522AFFFF7F9F9801B0228F6D98A
:100E48007CE71A60FFF7F2F91D4D06466B6F9907AC
:100E58007FF513AFFFF7EAF9801B0228F6D96DE793
:100E6800FFF7E4F9801B02287FF61EAF66E7052B23
:100E780004D12B6F43F004032B671EE72A6F22F07F
:100E880001022A672A6F22F004022A67002B7FF4E6
:100E980018AFFFF7CBF941F2883706462B6F980752
:100EA8007FF519AFFFF7C2F9801BB842F6D945E7BD
:100EB800FFF7BCF9801BB8427FF609AF3EE700BFD9
:100EC800003802400070004000004742800E474250
:100ED8002B4DAB6803F00C03082B3FF417AF294EDA
:100EE8000023022A33603ED1FFF7A0F907462B689A
:100EF800990132D447F6C07797FAA7F74FF44032F2
:100F0800B7FA87F792FAA2F24FF07061B2FA82F05C
:100F180091FAA1F1226AE3691343626A02FA07F7B8
:100F2800A26A5208013A82403B431343E26A144CD6
:100F3800B1FA81F102FA01F10B436B6001233360CE
:100F4800FFF774F9054623689A013FF5C8AEFFF725
:100F58006DF9401B0228F6D9F0E6FFF767F9C01BC8
:100F68000228C4D9EAE6FFF761F904462B689B0119
:100F78007FF5B5AEFFF75AF9001B0228F6D9DDE672
:100F88000038024060004742194A936803F00C0396
:100F9800042B10B503D0082B03D0164810BD1648F3
:100FA80010BD5168536801F03F0113F4800F47F6F4
:100FB800C074536894FAA4F0B0FA80F003EA04030A
:100FC80023FA00F314BF0C480A48B0FBF1F0584369
:100FD800074B4FF440325B6892FAA2F2B2FA82F2FF
:100FE80003F44033D34001335B00B0FBF3F010BD92
:100FF800003802400024F40000127A00564B1A68A8
:1010080002F00F028A422DE9F04105460E4630D320
:101018002A68940737D4D0073DD44F4B1A6802F09A
:101028000F029642C0F088802A68510700F18C8030
:10103800130707D5494A2969936823F4604343EAAB
:10104800C1039360FFF7A0FF444BF0229B6892FA1C
:10105800A2F2B2FA82F203F0F003D340404AD35C22
:10106800D840404B18600020FFF7AAF80020BDE8E0
:10107800F081CAB21A701B6803F00F039942C7D0F7
:101088000120BDE8F0813549A8688B6823F0F0039A
:1010980003438B60BFE76A68304B012A1ED11B6887
:1010A80013F4003FECD02D4CA36823F00303134343
:1010B800A360FFF7BBF86B68012B074641F288383D
:1010C80016D1A36803F00C03042BA6D0FFF7AEF8E3
:1010D800C01B4045F5D90320BDE8F081911E0129C8
:1010E8001B6802D813F0007FDCE713F0020FD9E782
:1010F800022B0AD1A36803F00C03082B8DD0FFF74D
:1011080095F8C01B4045F5D9E5E7032B0FD1A36837
:1011180003F00C030C2B80D0FFF788F8C01B404568
:10112800F5D9D8E7FFF782F8C01B4045D3D8A368A4
:1011380013F00C0FF6D170E7F2B21A701B6803F0C7
:101148000F039E429CD16FE70449E8688B6823F43B
:10115800E05303438B606BE7003C024000380240D9
:101168000C1600080400002030B595B0302200218C
:1011780008A800F033FA0021142203A800F02EFA80
:1011880000241C4B01941A6C42F080521A641B6CA8
:1011980003F080530193019B174B02941A6842F4A1
:1011A80080421A601B6803F480430293029B012368
:1011B80008934FF4803309934FF480030225A82243
:1011C8000F9308A804231093119213930E95129568
:1011D800FFF746FD0F2303934FF4A0530693052111
:1011E8004FF4805303A8049505940793FFF706FF6F
:1011F80015B030BD003802400070004010B5002224
:1012080004464FF480511848FFF724FD00224FF49C
:1012180000511548FFF71EFD00224FF48041124887
:10122800FFF718FD104800224FF40041FFF712FDA8
:10123800601E032817D8DFE800F0020A0E12012208
:101248004FF480510848BDE81040FFF703BD012264
:101258004FF40051F6E701224FF48041F2E70122F2
:101268004FF40041EEE710BD000C024000B58BB012
:101278000E23012209936946002307480892049324
:101288000093019302930393069305930792FEF745
:10129800E3FF0BB05DF804FB6800002080B58AB05E
:1012A800FEF7A2FFFFF760FF142200210DEB0200FA
:1012B80000F094F90025454B01951A6B4448454EBA
:1012C800454F42F080021A631A6B02F080020192C5
:1012D800019A02951A6B42F001021A631A6B02F026
:1012E80001020292029A03951A6B42F008021A63ED
:1012F8001A6B02F008020392039A04951A6B42F0E3
:1013080002021A631B6B03F002032A4604934FF48C
:101318007041049B0124FFF79DFC05A92E48059404
:1013280006950795FFF7B0FB05A94FF4704306949F
:1013380027482A4C059307950895FFF7A5FB284BE6
:101348002360284B2363284B6363102363604FF4A7
:101358004033236120464FF480136361A560E56044
:10136800A561E56125626562A562E562FEF7F4FFA5
:10137800FFF77CFF29462046FFF754F91B4A236BE9
:1013880012881A6002229D60DD601A6135460121CB
:101398003846FFF759FC0028F9D03378042B04BFEE
:1013A8000023337028780130C0B22870FFF726FF79
:1013B800236B2A781A7512225A7514210748FFF7E9
:1013C80061F84FF49670FEF737FFE0E70038024007
:1013D800000C0240AC000020000002406800002021
:1013E8000064004048000020240000200000002085
:1013F80008B5084A436B12881968914204D1187DD0
:10140800054B1870FFF7FAFE00210448BDE80840B4
:10141800FFF708B902000020AC0000206800002097
:1014280082B00C4B002100915A6C42F480425A64FD
:101438005A6C02F480420092009A01911A6C42F0B0
:1014480080521A641B6C03F080530193019B02B015
:10145800704700BF0038024010B5044688B0142217
:10146800002103A800F0BAF82268184B9A422BD141
:1014780003F5EA33002401941A6C154842F000720F
:101488001A641A6C02F000720192019A02941A6BA3
:1014980042F002021A631B6B03F002030293029BE1
:1014A8004FF440730393022304930323069303A981
:1014B80009230793FFF7E8FA142022462146FFF78D
:1014C8008DFA1420FFF7BEFA08B010BD0064004082
:1014D800000402407047FEE7FEE7FEE7FEE77047BC
:1014E80070477047FEF79ABE0148FFF779B900BF09
:1014F800680000200F49D1F8883043F47003C1F820
:1015080088300D4B1A68002042F001021A6098607A
:101518001A6822F0847222F480321A60074A5A60EC
:101528001A6822F480221A60D8604FF000638B603A
:10153800704700BF00ED00E0003802401030002482
:10154800DFF834D0002103E00C4B5B5843500431E2
:101558000B480C4B42189A42F6D30B4A02E0002380
:1015680042F8043B094B9A42F9D3FFF7C3FF00F056
:1015780011F8FFF793FE70470000022024160008B8
:10158800000000200800002008000020B000002013
:10159800FEE7000070B50D4E0D4CA41BA4100025ED
:1015A800A54209D10B4E0C4C00F020F8A41BA41046
:1015B8000025A54205D170BD56F82530984701355C
:1015C800EEE756F8253098470135F2E71C16000873
:1015D8001C1600081C1600082016000802440346C2
:1015E800934200D1704703F8011BF9E7F8B500BF33
:1015F800F8BC08BC9E467047F8B500BFF8BC08BCEC
:041608009E46704743
:10160C0000000000000000000102030406070809A6
:04161C00AD01000814
:041620008901000834
:08162400230123010024F4005E
:040000050800154991
:00000001FF
