:020000040800F2
:1000000000000220CD1200086112000863120008EF
:10001000651200086712000869120008000000005D
:100020000000000000000000000000006B1200084B
:100030006D120008000000006F1200087112000825
:100040001D1300081D1300081D1300081D130008D0
:100050001D1300081D1300081D1300081D130008C0
:100060001D1300081D1300081D1300081D130008B0
:100070001D1300081D1300081D1300081D130008A0
:100080001D1300081D1300081D1300081D13000890
:100090001D1300081D1300081D1300081D13000880
:1000A0001D1300081D1300081D1300081D13000870
:1000B000751200081D1300081D1300081D13000809
:1000C0001D1300081D1300081D1300081D13000850
:1000D0001D1300081D1300081D1300081D13000840
:1000E0001D1300081D1300081D1300081D13000830
:1000F0001D1300081D1300081D1300081D13000820
:100100001D1300081D1300081D1300081D1300080F
:100110001D1300081D1300081D1300081D130008FF
:100120001D1300081D1300081D1300081D130008EF
:100130001D1300081D1300081D1300081D130008DF
:100140001D1300081D1300081D1300081D130008CF
:100150001D1300081D1300081D1300081D130008BF
:100160001D1300081D1300081D1300081D130008AF
:100170001D1300081D1300081D13000800000000D7
:080180001D1300081D13000807
:1001880010B5054C237833B9044B13B10448AFF3C9
:1001980000800123237010BD0C0000200000000027
:1001A8007813000808B5034B1BB103490348AFF3A4
:1001B800008008BD0000000010000020781300082F
:1001C80053B94AB9002908BF00281CBF4FF0FF31B6
:1001D8004FF0FF3000F07AB9ADF1080C6DE904CEAC
:1001E80000F006F8DDF804E0DDE9022304B070470A
:1001F8002DE9F0478C460D460446089E002B51D148
:100208008A4217466DD9B2FA82FEBEF1000F0BD0B2
:10021800CEF1200C01FA0EF520FA0CFC02FA0EF7CA
:100228004CEA050C00FA0EF44FEA174A250CBCFB01
:10023800FAF81FFA87F90AFB18CC45EA0C4508FBBF
:1002480009F3AB420AD9ED1908F1FF3280F0238196
:10025800AB4240F22081A8F102083D44ED1AA4B255
:10026800B5FBFAF00AFB105544EA054400FB09F90E
:10027800A14509D9E41900F1FF3380F00A81A145AD
:1002880040F2078102383C44A4EB090440EA0840E4
:100298000021002E61D024FA0EF40023346073602C
:1002A800BDE8F0878B4207D9002E54D0002186E89C
:1002B80021000846BDE8F087B3FA83F1002940F031
:1002C8008E80AB4202D3824200F2FA80841A65EB38
:1002D80003050120AC46002E3FD086E81010BDE88B
:1002E800F08712B90127B7FBF2F7B7FA87FEBEF11C
:1002F800000F34D1EB1B3A0C1FFA87FC0121B3FB2A
:10030800F2F8250C02FB183345EA03450CFB08F309
:10031800AB4207D9ED1908F1FF3002D2AB4200F227
:10032800D1808046ED1AA3B2B5FBF2F002FB10555E
:1003380043EA05440CFB00FCA44507D9E41900F185
:10034800FF3302D2A44500F2B8801846A4EB0C048F
:1003580040EA08409DE731463046BDE8F087CEF1D7
:10036800200405FA0EF307FA0EF720FA04F83A0CFF
:1003780025FA04F448EA0308B4FBF2F14FEA1845F9
:1003880002FB11441FFA87FC45EA044501FB0CF304
:10039800AB4200FA0EF409D9ED1901F1FF3080F0F3
:1003A8008A80AB4240F2878002393D44EB1A1FFA3B
:1003B80088F5B3FBF2F002FB103345EA034500FB76
:1003C8000CF3AB4207D9ED1900F1FF386FD2AB42FD
:1003D8006DD902383D44EB1A40EA01418FE7C1F17B
:1003E800200722FA07F88B4005FA01F448EA0303CC
:1003F80020FA07FE4FEA134CFD404EEA040EB5FB07
:10040800FCF94FEA1E440CFB19551FFA83F844EA1D
:10041800054509FB08F4AC4202FA01F200FA01FAB8
:1004280008D9ED1809F1FF3043D2AC4241D9A9F1FE
:1004380002091D442D1B1FFA8EFEB5FBFCF00CFBB8
:1004480010554EEA054400FB08F8A04507D9E41802
:1004580000F1FF3529D2A04527D902381C4440EACB
:100468000940A4EB0804A0FB02894C45C6464D464A
:1004780015D312D056B1BAEB0E0364EB050404FA97
:1004880007F7CB401F43CC40376074600021BDE8BC
:10049800F0871846F8E69046E0E6C245EAD2B8EB9F
:1004A800020E69EB03050138E4E72846D7E7404622
:1004B80091E78146BEE7014678E702383C4445E7C4
:1004C800084608E7A8F102083D442BE7704700BF3B
:1004D80038B50E4A0E4B054618784FF47A73B3FBBD
:1004E800F0F31068B0FBF3F000F096F8044658B942
:1004F8000F2D09D8024629464FF0FF3000F04AF880
:10050800044B20461D6038BD012038BD080000207E
:10051800000000200400002008B50B4B1A6842F4C4
:1005280000721A601A6842F480621A601A6842F40B
:1005380080721A60032000F01BF80020FFF7C8FF44
:1005480000F052FE002008BD003C0240034A044B64
:1005580011681B780B441360704700BF2800002007
:1005680000000020014B1868704700BF28000020D9
:10057800074AD36823F4E0631B041B0C43F0BF63F2
:10058800000243F4003300F4E0600343D360704793
:1005980000ED00E0174B30B5DC68C4F30224C4F169
:1005A8000703251D042B28BF0423062D4FF0010542
:1005B80005FA03F303F1FF338CBF033C0024194011
:1005C800A14005FA04F4013C2240002842EA010255
:1005D8004FEA0212ADBF00F1604000F00F00064B79
:1005E80000F56140B5BFD2B2D2B21A5480F80023E8
:1005F80030BD00BF00ED00E014ED00E0002808DB8E
:100608004209012300F01F0003FA00F0014B43F8F0
:100618002200704700E100E00138B0F1807F0AD283
:10062800064B074A5860F02182F823100020072261
:1006380098601A6070470120704700BF10E000E022
:1006480000ED00E02DE9F04F85B00B68DFF8AC81D4
:10065800684ADFF8AC91019300234FF0010E019C2A
:100668000EFA03FE0EEA0406B64540F0AE804C686A
:1006780024F01007022F16D14FEAD30A00EB8A0A9A
:1006880003F0070BDAF820504FEA8B0B4FF00F0CF2
:100698000CFA0BFC25EA0C0C0D6905FA0BF545EA7A
:1006A8000C05CAF820504FEA430A0325D0F800B0D9
:1006B80005FA0AF5ED4304F0030C0BEA050B0CFAF6
:1006C8000AFC013F4CEA0B0C012FC0F800C011D8FE
:1006D800876807EA050BCF6807FA0AFC4CEA0B079C
:1006E8008760476827EA0E0EC4F300179F4047EA61
:1006F8000E074760C7683D408F6807FA0AF73D4311
:10070800C560E50061D54FF0000BCDF80CB0D8F806
:100718004470394D47F48047C8F84470D8F844709D
:1007280007F480470397039F23F0030707F18047E7
:1007380007F59C3703F0030CD7F808A04FEA8C0C98
:100748004FF00F0E0EFA0CFEA8422AEA0E0E43D006
:1007580005F58065A84241D005F58065A8423FD0DF
:1007680005F58065A8423DD005F58065A8423BD0D7
:1007780048453BD005F50065A84239D005F58065A8
:10078800A84214BF0825072505FA0CF545EA0E0509
:10079800BD601568F74314F4803F0CBF3D403543F6
:1007A8001560556814F4003F0CBF3D403543556053
:1007B800956814F4801F0CBF3D4035439560D5689B
:1007C800A40254BF3D403543D5600133102B7FF45C
:1007D80044AF05B0BDE8F08F5D46D5E70125D3E706
:1007E8000225D1E70325CFE70425CDE70525CBE78B
:1007F8000625C9E7003C01400000024000380240DD
:10080800001402400AB1816170470904FBE743699B
:1008180031EA030308BF0904816170472DE9F341F8
:10082800044618B9012002B0BDE8F0810368DD076D
:1008380010D42368980758D423681A0700F19A80BF
:1008480023685B0700F1B880A269002A40F019818B
:100858000020E8E7A64B9A6802F00C02042A07D0A9
:100868009A6802F00C02082A0AD15B68590207D577
:100878009F4B1B689A03DCD56368002BD9D1D1E75D
:1008880063689B4DB3F5803F11D12B6843F48033E7
:100898002B60FFF767FE964D06462B689B03C8D46E
:1008A800FFF760FE801B6428F7D90320BBE7B3F588
:1008B800A02F04D12B6843F480232B60E5E72A6836
:1008C80022F480322A602A6822F480222A60002BCF
:1008D800DFD1FFF747FE06462B689F03A9D5FFF730
:1008E80041FE801B6428F7D9DFE7814B9A6812F034
:1008F8000C0F07D09A6802F00C02082A11D15B6825
:100908005E020ED47A4B1A68950702D5E268012A6E
:1009180088D11A68216922F0F80242EAC1021A60F5
:100928008AE7E268734BB2B101221A60FFF71AFE38
:100938006F4D06462B68980707D52B68226923F068
:10094800F80343EAC2032B6076E7FFF70BFE801B30
:100958000228EFD9A9E71A60FFF704FE644D06469E
:100968002B6899077FF568AFFFF7FCFD801B02280D
:10097800F6D99AE76269604B7AB101221A60FFF7EB
:10098800F1FD5B4D06466B6F9F073FF559AFFFF7CB
:10099800E9FD801B0228F6D987E71A60FFF7E2FD18
:1009A800534D06466B6F98077FF54AAFFFF7DAFDA0
:1009B800801B0228F6D978E74D4B1A6C12F080524A
:1009C80028D101921A6C42F080521A641B6C03F011
:1009D80080530193019B0126484D2B68D9051BD5EF
:1009E800A368434D012B27D12B6F43F001032B67DD
:1009F800FFF7B8FD3E4D074641F288382B6F9B073D
:100A080039D5002E3FF420AF394A136C23F08053B8
:100A1800136419E70026DFE72B6843F480732B6023
:100A2800FFF7A0FD07462B68DA05D9D4FFF79AFD32
:100A3800C01B0228F7D938E7052B04D12B6F43F0E8
:100A480004032B67D0E72A6F22F001022A672A6F76
:100A580022F004022A67002BCAD1FFF783FD41F276
:100A6800883807462B6F9807CBD5FFF77BFDC01B4F
:100A78004045F7D919E7FFF775FDC01B4045BDD9BB
:100A880013E71B4DAB6803F00C03082B3FF4CAAE09
:100A98001B4E0023022A336034D1FFF763FD07465B
:100AA8002B6899011ED4226AE3691343626A43EAF8
:100AB8008213E26A43EA0263A26A0D4C5208013AC1
:100AC80043EA02436B6001233360FFF74BFD0546A1
:100AD80023689A013FF5BCAEFFF744FD401B02288E
:100AE800F6D9E2E6FFF73EFDC01B0228D8D9DCE6BE
:100AF8000038024000004742800E47420070004024
:100B080060004742FFF72EFD04462B689B017FF5E6
:100B18009FAEFFF727FD001B0228F6D9C5E600BFE8
:100B2800134908B58B6803F00C03042B03D0082B7A
:100B380003D0104808BD104808BD4A684B6849688A
:100B480013F4800314BF0C480A48C1F3881118BF76
:100B5800002302F03F02A1FB0001FFF731FB044B29
:100B68005B68C3F3014301335B00B0FBF3F008BDDE
:100B7800003802400024F40040787D012DE9F0415E
:100B88000D46044610B90120BDE8F081444B1A68AF
:100B980002F00F028A4228D321688F072DD4C80794
:100BA80040D43F4B1A6802F00F02954266D3226880
:100BB80051076CD4130707D53A4A2169936823F47F
:100BC800604343EAC1039360FFF7AAFF354B364AF7
:100BD8009B68C3F30313D35CD840344B18600020E0
:100BE800FFF776FC0020BDE8F081CAB21A701B68D6
:100BF80003F00F039942C6D1CEE72A4B11F0040F38
:100C08001EBF9A6842F4E0529A600E0742BF9A6883
:100C180042F460429A609A68A06822F0F0020243A7
:100C28009A60BCE762681F4B012A1DD11B6813F448
:100C3800003FA8D01B4EB36823F003031343B360EF
:100C4800FFF790FC41F288380746B368626803F002
:100C58000C03B3EB820FA4D0FFF784FCC01B404504
:100C6800F3D90320BDE8F081911E01291B6802D841
:100C780013F0007FDDE713F0020FDAE7EAB21A702B
:100C88001B6803F00F039D427FF47DAF8FE7054992
:100C9800E0688B6823F4E05303438B608AE700BF66
:100CA800003C024000380240901300080800002071
:100CB8000368DA6842F00102DA609A6802F0070213
:100CC800062A1EBF1A6842F001021A600020704707
:100CD800704770477047704703681A69910710B5E5
:100CE80004460ED5DA6892070BD56FF002021A6136
:100CF8009B6901229B07027777D0FFF7EAFF002361
:100D0800237723681A69500710D5DA6851070DD57B
:100D18006FF004021A619B69022213F4407F227764
:100D2800204668D0FFF7D5FF0023237723681A6988
:100D380012070FD5DA6810070CD56FF008021A6190
:100D4800DB6904229907227720465AD0FFF7C1FFB2
:100D58000023237723681A69D20610D5DA68D006EB
:100D68000DD56FF010021A61DB69082213F4407F79
:100D7800227720464BD0FFF7ACFF00232377236868
:100D88001A69D10708D5DA68D20705D56FF00102CC
:100D98001A61204600F080F923681A69100608D500
:100DA800DA68110605D56FF080021A61204600F056
:100DB80072F923681A69520608D5DA68500605D50B
:100DC8006FF040021A612046FFF785FF23681A6911
:100DD800910622D5DA6892061FD56FF020022046C8
:100DE8001A61BDE8104000F055B9FFF771FF2046C1
:100DF800FFF770FF83E7FFF76BFF2046FFF76AFFF7
:100E080092E7FFF765FF2046FFF764FFA0E7FFF7CB
:100E18005FFF2046FFF75EFFAFE710BD304A03686B
:100E2800904212D0B0F1804F0FD0A2F57C42904290
:100E38000BD002F58062904207D002F580629042A2
:100E480003D002F57842904219D14A6823F0700322
:100E58001343234A904229D0B0F1804F26D0A2F5FF
:100E68007C42904222D002F5806290421ED002F568
:100E7800806290421AD002F57842904216D0194A00
:100E8800904213D002F5806290420FD002F5806242
:100E980090420BD0A2F59832904207D002F58062BA
:100EA800904203D002F58062904203D1CA6823F4CD
:100EB800407313434A6923F08003134303608B682C
:100EC800C3620B688362064B984203D003F58063C4
:100ED800984201D10B69036301234361704700BF46
:100EE800000001400040014010B50446A0B190F850
:100EF8003D3003F0FF021BB980F83C2000F090F968
:100F0800022384F83D302068211DFFF787FF012365
:100F180084F83D30002010BD012010BD10B5846854
:100F28000A4324F47F4442EA03232343836010BD29
:100F380090F83C30012B70B504464FF0020019D0F0
:100F480084F83D002068012384F83C30836823F44A
:100F58007F4323F0770383600B68402B65D015D857
:100F6800102B0CD007D853B10123002084F83D3052
:100F780084F83C0070BD202B01D0302BF4D182685E
:100F880043F0070322F0700213431AE0602B34D0B9
:100F980019D8502BE8D14A68CE68016A056A25F04D
:100FA80001050562836921F00A0123F0F00343EA91
:100FB80006130A4383610262836823F0700343F0D7
:100FC80057038360D0E7702B0CD0B3F5005FCBD10B
:100FD800CB684A688968FFF7A1FF2268936843F4E1
:100FE800804308E0CB684A688968FFF797FF226862
:100FF800936843F077039360B6E74D68CE68016A5B
:1010080021F0100101628269036A22F4704223F020
:10101800A00343EA051342EA063282610362836849
:1010280023F0700343F06703CBE74A68CE68016A90
:10103800056A25F001050562836921F00A0123F09C
:10104800F00343EA06130A4383610262836823F0CC
:10105800700343F04703B4E790F83C30012B30B5F8
:101068004FF0020314D0046880F83D306268A3682A
:101078000D68496822F0700223F080030B432A436D
:101088006260A360012380F83D30002380F83C3083
:10109800184630BD704770474FF470410148FFF75C
:1010A800B6BB00BF000C024030B595B0302200211D
:1010B80008A800F055F90021142203A800F050F9FF
:1010C80000241C4B01941A6C42F080521A641B6C69
:1010D80003F080530193019B174B02941A6842F462
:1010E80080421A601B680F9403F480430293029BAA
:1010F80001230B9310230C9308231093A823022594
:10110800119308A80423139308950E951295FFF7D9
:1011180085FB0F2303934FF4A053069305214FF447
:10112800805303A8049505940793FFF727FD15B08E
:1011380030BD00BF003802400070004000B589B0E3
:10114800FFF7EAF9FFF7B0FF1422002103A80024F3
:1011580000F006F9214B00941A6B2148214D42F00A
:1011680008021A631B6B03F00803224600934FF42E
:101178007041009BFFF746FB4FF47043039303A9AC
:1011880001231748049305940694FFF75BFA214658
:10119800102203A800F0E4F84FF080424AF20F430F
:1011A80085E80C00284640F2CF73EB600194029466
:1011B800AC602C61AC61FFF797FE4FF4805303A934
:1011C80028460393FFF7B4FE01A928460194029428
:1011D800FFF742FF2846FFF76BFDFEE700380240A5
:1011E800000C02402C00002082B00C4B0021009122
:1011F8005A6C42F480425A645A6C02F4804200925B
:10120800009A01911A6C42F080521A641B6C03F028
:1012180080530193019B02B0704700BF0038024021
:101228000368B3F1804F07B513D1002203F50E33DD
:101238000192196C41F0010119641B6C03F0010360
:1012480001931C201146019BFFF7A4F91C20FFF70E
:10125800D5F903B05DF804FB7047FEE7FEE7FEE74B
:10126800FEE7704770477047FFF770B90148FFF70E
:1012780033BD00BF2C0000200F49D1F8883043F45B
:101288007003C1F888300D4B1A68002042F0010243
:101298001A6098601A6822F0847222F480321A6008
:1012A800074A5A601A6822F480221A60D8604FF000
:1012B80000638B60704700BF00ED00E0003802401B
:1012C80010300024DFF834D0002103E00C4B5B58C9
:1012D800435004310B480C4B42189A42F6D30B4A40
:1012E80002E0002342F8043B094B9A42F9D3FFF786
:1012F800C3FF00F011F8FFF721FF7047000002203C
:10130800B0130008000000200C0000200C00002092
:101318006C000020FEE7000070B50D4E0D4CA41BBC
:10132800A4100025A54209D10B4E0C4C00F020F862
:10133800A41BA4100025A54205D170BD56F8253080
:1013480098470135EEE756F8253098470135F2E71A
:10135800A8130008A8130008A8130008AC13000875
:1013680002440346934200D1704703F8011BF9E792
:10137800F8B500BFF8BC08BC9E467047F8B500BF7A
:08138800F8BC08BC9E4670474A
:101390000000000000000000010203040607080925
:0813A00058EEFF7F0100000080
:0413A800AD0100088B
:0413AC0089010008AB
:0C13B00001000000100000000024F40008
:04000005080012CD10
:00000001FF
