:020000040800F2
:1000000000000220ED0C00088D0C00088F0C000889
:10001000910C0008930C0008950C000800000000EB
:10002000000000000000000000000000970C000825
:10003000990C0008000000009B0C00089D0C0008B3
:100040003D0D00083D0D00083D0D00083D0D000868
:100050003D0D00083D0D00083D0D00083D0D000858
:100060003D0D00083D0D00083D0D00083D0D000848
:100070003D0D00083D0D00083D0D00083D0D000838
:100080003D0D00083D0D00083D0D00083D0D000828
:100090003D0D00083D0D00083D0D00083D0D000818
:1000A0003D0D00083D0D00083D0D00083D0D000808
:1000B0003D0D00083D0D00083D0D00083D0D0008F8
:1000C0003D0D00083D0D00083D0D00083D0D0008E8
:1000D0003D0D00083D0D00083D0D00083D0D0008D8
:1000E0003D0D00083D0D00083D0D00083D0D0008C8
:1000F0003D0D00083D0D00083D0D00083D0D0008B8
:100100003D0D00083D0D00083D0D00083D0D0008A7
:100110003D0D00083D0D00083D0D00083D0D000897
:100120003D0D00083D0D00083D0D00083D0D000887
:100130003D0D00083D0D00083D0D00083D0D000877
:100140003D0D00083D0D00083D0D00083D0D000867
:100150003D0D00083D0D00083D0D00083D0D000857
:100160003D0D00083D0D00083D0D00083D0D000847
:100170003D0D00083D0D00083D0D00080000000089
:080180003D0D00083D0D0008D3
:1001880010B5054C237833B9044B13B10448AFF3C9
:1001980000800123237010BD04000020000000002F
:1001A800980D000808B5034B1BB103490348AFF38A
:1001B800008008BD0000000008000020980D00081D
:1001C80010B5084B044618684FF47A73B0FBF3F087
:1001D80000F078F8002221464FF0FF3000F03EF89A
:1001E800002010BD0000002008B50B4B1A6842F42F
:1001F80000721A601A6842F480621A601A6842F43F
:1002080080721A60032000F017F80020FFF7D8FF6B
:1002180000F0ECFC002008BD003C0240024A1368D4
:1002280001331360704700BF20000020014B18689D
:10023800704700BF20000020074AD36823F4E0631A
:100248001B041B0C43F0BF63000243F4003300F4AB
:10025800E0600343D360704700ED00E0174B30B512
:10026800DC68C4F30224C4F10703251D042B28BF4E
:100278000423062D4FF0010505FA03F303F1FF33BC
:100288008CBF033C00241940A14005FA04F4013C4A
:100298002240002842EA01024FEA0212AFBF00F1F1
:1002A800604000F00F00064BD2B2A5BF00F56140D8
:1002B800D2B21A5480F8002330BD00BF00ED00E030
:1002C80014ED00E00138B0F1807F0AD2064B074AEE
:1002D8005860F02182F823100020072298601A60E5
:1002E80070470120704700BF10E000E000ED00E01B
:1002F8002DE9F04F85B00B68DFF8AC81684ADFF86C
:10030800AC91019300234FF0010E019C0EFA03FEFD
:100318000EEA0406B64540F0AE804C6824F010079B
:10032800022F16D14FEAD30A00EB8A0A03F0070B13
:10033800DAF820504FEA8B0B4FF00F0C0CFA0BFC3D
:1003480025EA0C0C0D6905FA0BF545EA0C05CAF807
:1003580020504FEA430A0325D0F800B005FA0AF501
:10036800ED4304F0030C0BEA050B0CFA0AFC013F01
:100378004CEA0B0C012FC0F800C011D8876807EAB7
:10038800050BCF6807FA0AFC4CEA0B078760476839
:1003980027EA0E0EC4F300179F4047EA0E0747608E
:1003A800C7683D408F6807FA0AF73D43C560E50016
:1003B80061D54FF0000BCDF80CB0D8F84470394D2A
:1003C80047F48047C8F84470D8F8447007F4804769
:1003D8000397039F23F0030707F1804707F59C372E
:1003E80003F0030CD7F808A04FEA8C0C4FF00F0E5F
:1003F8000EFA0CFEA8422AEA0E0E43D005F58065D7
:10040800A84241D005F58065A8423FD005F5806532
:10041800A8423DD005F58065A8423BD048453BD071
:1004280005F50065A84239D005F58065A84214BFD6
:100438000825072505FA0CF545EA0E05BD6015687F
:10044800F74314F4803F0CBF3D40354315605568B1
:1004580014F4003F0CBF3D4035435560956814F4D3
:10046800801F0CBF3D4035439560D568A40254BF3A
:100478003D403543D5600133102B7FF444AF05B0C0
:10048800BDE8F08F5D46D5E70125D3E70225D1E722
:100498000325CFE70425CDE70525CBE70625C9E7E2
:1004A800003C0140000002400038024000140240B5
:1004B8000368F7B50446D8073BD42368990700F1C9
:1004C800868023681E0700F1D18023685D072AD53E
:1004D800002301938E4B8F4D1A6C42F080521A64A0
:1004E8001B6C03F080530193019B2B6843F48073CA
:1004F8002B60FFF79BFE06462B68DA0540F1D88093
:10050800A368834D012B40F0DA802B6F43F0010381
:100518002B67FFF78BFE7E4D064641F288372B6F1F
:100528009B0740F1ED80A269002A40F0F980002085
:1005380015E0774B9A6802F00C02042A07D09A68F3
:1005480002F00C02082A0CD15B685A0209D5704BDC
:100558001B689B03B1D56368002BAED1012003B0A3
:10056800F0BD63686A4DB3F5803F11D12B6843F441
:1005780080332B60FFF75AFE654D06462B689F03B4
:100588009BD4FFF753FE801B6428F7D90320E6E7C6
:10059800B3F5A02F04D12B6843F480232B60E5E743
:1005A8002A6822F480322A602A6822F480222A608B
:1005B800002BDFD1FFF73AFE06462B6898037FF53C
:1005C8007CAFFFF733FE801B6428F6D9DEE7504B7B
:1005D8009A6812F00C0F07D09A6802F00C02082AE9
:1005E80016D15B68590213D4494B1A68920702D591
:1005F800E268012AB2D11868F82292FAA2F2B2FA95
:1006080082F122698A4020F0F8010A431A6058E70B
:10061800E268414BDAB101221A60FFF707FE3C4D50
:1006280006462B689B070CD52968F82393FAA3F391
:10063800B3FA83F22369934021F0F80213432B6045
:100648003FE7FFF7F3FD801B0228EAD99EE71A600F
:10065800FFF7ECFD2E4D06462B689F077FF531AF5F
:10066800FFF7E4FD801B0228F6D98FE762692B4B60
:100678007AB101221A60FFF7D9FD254D06466B6F46
:1006880098073FF522AFFFF7D1FD801B0228F6D966
:100698007CE71A60FFF7CAFD1D4D06466B6F990788
:1006A8007FF513AFFFF7C2FD801B0228F6D96DE76F
:1006B800FFF7BCFD801B02287FF61EAF66E7052BFF
:1006C80004D12B6F43F004032B671EE72A6F22F037
:1006D80001022A672A6F22F004022A67002B7FF49E
:1006E80018AFFFF7A3FD41F2883706462B6F98072E
:1006F8007FF519AFFFF79AFD801BB842F6D945E799
:10070800FFF794FD801BB8427FF609AF3EE700BFB4
:10071800003802400070004000004742800E474207
:100728002B4DAB6803F00C03082B3FF417AF294E91
:100738000023022A33603ED1FFF778FD07462B6875
:10074800990132D447F6C07797FAA7F74FF44032A9
:10075800B7FA87F792FAA2F24FF07061B2FA82F014
:1007680091FAA1F1226AE3691343626A02FA07F770
:10077800A26A5208013A82403B431343E26A144C8E
:10078800B1FA81F102FA01F10B436B600123336086
:10079800FFF74CFD054623689A013FF5C8AEFFF701
:1007A80045FD401B0228F6D9F0E6FFF73FFDC01BC8
:1007B8000228C4D9EAE6FFF739FD04462B689B01F5
:1007C8007FF5B5AEFFF732FD001B0228F6D9DDE64E
:1007D8000038024060004742194A936803F00C034E
:1007E800042B10B503D0082B03D0164810BD1648AB
:1007F80010BD5168536801F03F0113F4800F47F6AC
:10080800C074536894FAA4F0B0FA80F003EA0403C1
:1008180023FA00F314BF0C480A48B0FBF1F0584320
:10082800074B4FF440325B6892FAA2F2B2FA82F2B6
:1008380003F44033D34001335B00B0FBF3F010BD49
:10084800003802400024F40040787D01564B1A68B5
:1008580002F00F028A422DE9F04105460E4630D3D8
:100868002A68940737D4D0073DD44F4B1A6802F052
:100878000F029642C0F088802A68510700F18C80E8
:10088800130707D5494A2969936823F4604343EA63
:10089800C1039360FFF7A0FF444BF0229B6892FAD4
:1008A800A2F2B2FA82F203F0F003D340404AD35CDA
:1008B800D840404B18600020FFF782FC0020BDE8BC
:1008C800F081CAB21A701B6803F00F039942C7D0AF
:1008D8000120BDE8F0813549A8688B6823F0F00352
:1008E80003438B60BFE76A68304B012A1ED11B683F
:1008F80013F4003FECD02D4CA36823F003031343FB
:10090800A360FFF793FC6B68012B074641F2883818
:1009180016D1A36803F00C03042BA6D0FFF786FCBE
:10092800C01B4045F5D90320BDE8F081911E01297F
:100938001B6802D813F0007FDCE713F0020FD9E739
:10094800022B0AD1A36803F00C03082B8DD0FFF704
:100958006DFCC01B4045F5D9E5E7032B0FD1A36813
:1009680003F00C030C2B80D0FFF760FCC01B404544
:10097800F5D9D8E7FFF75AFCC01B4045D3D8A36880
:1009880013F00C0FF6D170E7F2B21A701B6803F07F
:100998000F039E429CD16FE70449E8688B6823F4F3
:1009A800E05303438B606BE7003C02400038024091
:1009B800B00D0008000000200268022380F83930DA
:1009C800136843F001031360012380F839300020D5
:1009D800704700002E4A0368904212D0B0F1804F51
:1009E8000FD0A2F57C4290420BD002F58062904273
:1009F80007D002F58062904203D002F57842904217
:100A08001DD14A6823F070031343214A904204D150
:100A1800CA6823F44073134328E0B0F1804FF7D03D
:100A28001C4A9042F4D002F580629042F0D002F560
:100A380080629042ECD002F578429042E8D0164AA3
:100A48009042E5D002F580629042E1D002F58062E2
:100A58009042DDD0A2F598329042D9D002F580625A
:100A68009042D5D002F580629042D1D003608B6865
:100A7800C3620B688362064B984206D003F5806315
:100A8800984202D00123436170470B690363F9E779
:100A980000000140000400400040014010B5044639
:100AA800A0B190F8393003F0FF021BB980F8382064
:100AB80000F0B8F8022384F839302068211DFFF7C8
:100AC80089FF012384F83930002010BD012010BDB2
:100AD80090F83830012B10B54FF0020318D080F889
:100AE800393003680C685A68496822F070025A6005
:100AF8005A6822435A609A6822F080029A609A687B
:100B08000A439A60012380F83930002380F838308E
:100B1800184610BD10B594B03022002108A800F086
:100B28002FF90021142203A800F02AF90024164BFB
:100B380001941A6C42F080521A641B6C03F08053C3
:100B48000193019B114B02941A6842F480421A6087
:100B58001B680E9403F480430293029B02230893BC
:100B680001230B9308A810230C93FFF7A1FC0F2374
:100B7800214603A803930494059406940794FFF769
:100B880065FE14B010BD00BF003802400070004080
:100B98001FB50025FFF728FBFFF7BCFF114B019598
:100BA8001A6B114C42F001021A631B6B029503F099
:100BB80001030193019B039532234FF080462046A1
:100BC800E36026606560A5602561FFF767FF02A9FD
:100BD800204602950395FFF77BFF2046FFF7ECFEC2
:100BE800736AFDE7003802402800002082B00C4BF1
:100BF800002100915A6C42F480425A645A6C02F403
:100C080080420092009A01911A6C42F080521A6454
:100C18001B6C03F080530193019B02B0704700BF27
:100C28000038024010B5044688B01422002103A8F9
:100C380000F0A6F82368B3F1804F1FD103F50E33F7
:100C4800002101911A6C0E4842F001021A641A6CD4
:100C580002F001020192019A02911A6B42F001021C
:100C68001A631B6B03F001030293029B0222012308
:100C780003A9039304920793FFF73AFB08B010BD4A
:100C8800000002407047FEE7FEE7FEE7FEE7704718
:100C980070477047FFF7C2BA0F49D1F8883043F45C
:100CA8007003C1F888300D4B1A68002042F0010229
:100CB8001A6098601A6822F0847222F480321A60EE
:100CC800074A5A601A6822F480221A60D8604FF0E6
:100CD80000638B60704700BF00ED00E00038024001
:100CE80010300024DFF834D0002103E00C4B5B58AF
:100CF800435004310B480C4B42189A42F6D30B4A26
:100D080002E0002342F8043B094B9A42F9D3FFF76B
:100D1800C3FF00F011F8FFF73BFF70470000022007
:100D2800C80D000800000020040000200400002076
:100D380064000020FEE7000070B50D4E0D4CA41BAA
:100D4800A4100025A54209D10B4E0C4C00F020F848
:100D5800A41BA4100025A54205D170BD56F8253066
:100D680098470135EEE756F8253098470135F2E700
:100D7800C00D0008C00D0008C00D0008C40D000813
:100D880002440346934200D1704703F8011BF9E778
:100D9800F8B500BFF8BC08BC9E467047F8B500BF60
:080DA800F8BC08BC9E46704730
:100DB0000000000001020304010203040607080901
:040DC000AD01000879
:040DC4008901000899
:040DC8000024F4000F
:0400000508000CEDF6
:00000001FF
