:020000040800F2
:10000000000002204D130008ED120008EF12000856
:10001000F1120008F3120008F512000800000000B9
:10002000000000000000000000000000F7120008BF
:10003000F912000800000000FB120008FD12000881
:100040009D1300089D1300089D1300089D130008D0
:100050009D1300089D1300089D1300089D130008C0
:100060009D1300089D1300089D1300089D130008B0
:100070009D1300089D1300089D1300089D130008A0
:100080009D1300089D1300089D1300089D13000890
:100090009D1300089D1300089D1300089D13000880
:1000A0009D1300089D1300089D1300089D13000870
:1000B0009D1300089D1300089D1300089D13000860
:1000C0009D1300089D1300089D1300089D13000850
:1000D0009D1300089D1300089D1300089D13000840
:1000E0009D1300089D1300089D1300089D13000830
:1000F0009D1300089D1300089D1300089D13000820
:100100009D1300089D1300089D1300089D1300080F
:100110009D1300089D1300089D1300089D130008FF
:100120009D1300089D1300089D1300089D130008EF
:100130009D1300089D1300089D1300089D130008DF
:100140009D1300089D1300089D1300089D130008CF
:100150009D1300089D1300089D1300089D130008BF
:100160009D1300089D1300089D1300089D130008AF
:100170009D1300089D1300089D1300080000000057
:080180009D1300089D13000807
:1001880010B5054C237833B9044B13B10448AFF3C9
:1001980000800123237010BD0C0000200000000027
:1001A800F813000808B5034B1BB103490348AFF324
:1001B800008008BD0000000010000020F8130008AF
:1001C80053B94AB9002908BF00281CBF4FF0FF31B6
:1001D8004FF0FF3000F07AB9ADF1080C6DE904CEAC
:1001E80000F006F8DDF804E0DDE9022304B070470A
:1001F8002DE9F0478C460D460446089E002B51D148
:100208008A4217466DD9B2FA82FEBEF1000F0BD0B2
:10021800CEF1200C01FA0EF520FA0CFC02FA0EF7CA
:100228004CEA050C00FA0EF44FEA174A250CBCFB01
:10023800FAF81FFA87F90AFB18CC45EA0C4508FBBF
:1002480009F3AB420AD9ED1908F1FF3280F0238196
:10025800AB4240F22081A8F102083D44ED1AA4B255
:10026800B5FBFAF00AFB105544EA054400FB09F90E
:10027800A14509D9E41900F1FF3380F00A81A145AD
:1002880040F2078102383C44A4EB090440EA0840E4
:100298000021002E61D024FA0EF40023346073602C
:1002A800BDE8F0878B4207D9002E54D0002186E89C
:1002B80021000846BDE8F087B3FA83F1002940F031
:1002C8008E80AB4202D3824200F2FA80841A65EB38
:1002D80003050120AC46002E3FD086E81010BDE88B
:1002E800F08712B90127B7FBF2F7B7FA87FEBEF11C
:1002F800000F34D1EB1B3A0C1FFA87FC0121B3FB2A
:10030800F2F8250C02FB183345EA03450CFB08F309
:10031800AB4207D9ED1908F1FF3002D2AB4200F227
:10032800D1808046ED1AA3B2B5FBF2F002FB10555E
:1003380043EA05440CFB00FCA44507D9E41900F185
:10034800FF3302D2A44500F2B8801846A4EB0C048F
:1003580040EA08409DE731463046BDE8F087CEF1D7
:10036800200405FA0EF307FA0EF720FA04F83A0CFF
:1003780025FA04F448EA0308B4FBF2F14FEA1845F9
:1003880002FB11441FFA87FC45EA044501FB0CF304
:10039800AB4200FA0EF409D9ED1901F1FF3080F0F3
:1003A8008A80AB4240F2878002393D44EB1A1FFA3B
:1003B80088F5B3FBF2F002FB103345EA034500FB76
:1003C8000CF3AB4207D9ED1900F1FF386FD2AB42FD
:1003D8006DD902383D44EB1A40EA01418FE7C1F17B
:1003E800200722FA07F88B4005FA01F448EA0303CC
:1003F80020FA07FE4FEA134CFD404EEA040EB5FB07
:10040800FCF94FEA1E440CFB19551FFA83F844EA1D
:10041800054509FB08F4AC4202FA01F200FA01FAB8
:1004280008D9ED1809F1FF3043D2AC4241D9A9F1FE
:1004380002091D442D1B1FFA8EFEB5FBFCF00CFBB8
:1004480010554EEA054400FB08F8A04507D9E41802
:1004580000F1FF3529D2A04527D902381C4440EACB
:100468000940A4EB0804A0FB02894C45C6464D464A
:1004780015D312D056B1BAEB0E0364EB050404FA97
:1004880007F7CB401F43CC40376074600021BDE8BC
:10049800F0871846F8E69046E0E6C245EAD2B8EB9F
:1004A800020E69EB03050138E4E72846D7E7404622
:1004B80091E78146BEE7014678E702383C4445E7C4
:1004C800084608E7A8F102083D442BE7704700BF3B
:1004D80038B50E4A0E4B054618784FF47A73B3FBBD
:1004E800F0F31068B0FBF3F000F08EFA044658B948
:1004F8000F2D09D8024629464FF0FF3000F050FA78
:10050800044B20461D6038BD012038BD080000207E
:10051800000000200400002008B50B4B1A6842F4C4
:1005280000721A601A6842F480621A601A6842F40B
:1005380080721A60032000F021FA0020FFF7C8FF3C
:1005480000F082FE002008BD003C0240034A044B34
:1005580011681B780B441360704700BF34000020FB
:1005680000000020014B1868704700BF34000020CD
:1005780038B50446002800F09B80056C25B900F0CA
:100588007FFE656484F83C50236CDB0600F18E80A6
:10059800236C23F4885323F0020343F002032364FB
:1005A800444B5A6822F440325A605A6861680A43D8
:1005B8005A60236821695A6822F480725A605A681E
:1005C80042EA01225A605A68A16822F040725A60D1
:1005D8005A680A435A609A68E16822F400629A608D
:1005E8009A680A439A603449A26A8A4252D0996842
:1005F80021F07061996099680A439A609A68E16A83
:1006080022F040529A609A680A439A609A68217E5A
:1006180022F002029A609A6842EA41029A6094F8CB
:100628002020002A3ED05A68616A42F400625A606B
:100638005A6822F460425A605A68013942EA4132E3
:100648005A60DA6AE16922F47002DA62DA6A013918
:1006580042EA0152DA629A6894F8301022F4007281
:100668009A609A6842EA41229A609A68616922F41B
:1006780080629A609A68002042EA81229A606064E7
:10068800236C23F0030343F001032364002384F85D
:100698003C3038BD9A6822F070629A609A6822F0FD
:1006A8004052B2E75A6822F40062C9E70120EDE738
:1006B800012038BD002301400100000F82B0002353
:1006C800019390F83C30012B61D0012380F83C3035
:1006D80003689A68D10705D59A68D20714D4002010
:1006E80002B070479A682B4942F001029A602A4A80
:1006F8001268B2FBF1F202EB42020192019A002A5F
:10070800EAD0019A013AF8E7026C22F4E06222F09A
:10071800010242F4807202645A68510541BF026CBA
:1007280022F4405242F480520264026C12F4805265
:100738001CBF426C22F006024264002280F83C2072
:100748006FF022021A60154A516811F01F0F144900
:100758001AD18B4206D001F580718B420BD15268B9
:10076800D206BCD1986810F04050B8D19A6842F0CF
:1007780080429A60B4E70B498B42B0D1526802F0CC
:100788001F020F2AEED9AAE78B42A8D1EAE7022076
:10079800A6E700BF40420F000800002000230140E8
:1007A800002001400022014003689A6870B5560590
:1007B80004460D460BD59B68D80508D5236C43F035
:1007C80020032364002384F83C30012070BDFFF728
:1007D800C9FE064623681A6892070CD56FF0120204
:1007E8001A60226C42F4007222649A6812F0405F28
:1007F80013D0002070BD691CEDD045B9236C43F0BF
:1008080004032364002384F83C30032070BDFFF701
:10081800A9FE801B8542DDD2F0E7227E002AE8D1BE
:10082800DA6A12F4700F02D09B685B05E1D4236C7E
:1008380023F480732364206C10F48050D9D1236C86
:1008480043F00103236470BD0368D86C704700004F
:10085800F7B50023019390F83C30012B00F083801A
:100868000D6804688A680123092D80F83C30AEB20F
:100878002AD906EB4603E7681E3B4FF0070E0EFA2F
:1008880003FE27EA0E07E760E76802FA03F33B4333
:10089800E3604A68062A4FEA820325D81344676B47
:1008A800591F1F238B4027EA03036363626B06FA11
:1008B80001F1114361632D4B9C4234D0002380F831
:1008C8003C30184603B0F0BD276905EB45034FF0EF
:1008D800070E0EFA03FE27EA0E072761276902FAB8
:1008E80003F33B432361D4E70C2A0ED81344216B4E
:1008F800A3F123021F23934021EA03032363236BFD
:1009080006FA02F21A432263D5E71344E16A413B2F
:100918001F229A4021EA0202E262E26A06FA03F121
:100928001143E162C7E7122D04D1114A536843F419
:1009380080035360A5F11003012BBFD80C4A5368FC
:10094800102D43F400035360B8D10A4B0A4A1B68C0
:10095800B3FBF2F20A2353430193019B002BADD062
:10096800019B013BF8E70220ACE700BF00200140F3
:10097800002301400800002040420F00074AD368C6
:1009880023F4E0631B041B0C43F0BF63000243F431
:10099800003300F4E0600343D360704700ED00E0EB
:1009A800174B30B5DC68C4F30224C4F10703251DD6
:1009B800042B28BF0423062D4FF0010505FA03F385
:1009C80003F1FF338CBF033C00241940A14005FA12
:1009D80004F4013C2240002842EA01024FEA0212D4
:1009E800ADBF00F1604000F00F00064B00F561401C
:1009F800B5BFD2B2D2B21A5480F8002330BD00BFBE
:100A080000ED00E014ED00E00138B0F1807F0AD27B
:100A1800064B074A5860F02182F82310002007226D
:100A280098601A6070470120704700BF10E000E02E
:100A380000ED00E02DE9F04F85B00B68DFF8AC81E0
:100A4800684ADFF8AC91019300234FF0010E019C36
:100A58000EFA03FE0EEA0406B64540F0AE804C6876
:100A680024F01007022F16D14FEAD30A00EB8A0AA6
:100A780003F0070BDAF820504FEA8B0B4FF00F0CFE
:100A88000CFA0BFC25EA0C0C0D6905FA0BF545EA86
:100A98000C05CAF820504FEA430A0325D0F800B0E5
:100AA80005FA0AF5ED4304F0030C0BEA050B0CFA02
:100AB8000AFC013F4CEA0B0C012FC0F800C011D80A
:100AC800876807EA050BCF6807FA0AFC4CEA0B07A8
:100AD8008760476827EA0E0EC4F300179F4047EA6D
:100AE8000E074760C7683D408F6807FA0AF73D431D
:100AF800C560E50061D54FF0000BCDF80CB0D8F813
:100B08004470394D47F48047C8F84470D8F84470A9
:100B180007F480470397039F23F0030707F18047F3
:100B280007F59C3703F0030CD7F808A04FEA8C0CA4
:100B38004FF00F0E0EFA0CFEA8422AEA0E0E43D012
:100B480005F58065A84241D005F58065A8423FD0EB
:100B580005F58065A8423DD005F58065A8423BD0E3
:100B680048453BD005F50065A84239D005F58065B4
:100B7800A84214BF0825072505FA0CF545EA0E0515
:100B8800BD601568F74314F4803F0CBF3D40354302
:100B98001560556814F4003F0CBF3D40354355605F
:100BA800956814F4801F0CBF3D4035439560D568A7
:100BB800A40254BF3D403543D5600133102B7FF468
:100BC80044AF05B0BDE8F08F5D46D5E70125D3E712
:100BD8000225D1E70325CFE70425CDE70525CBE797
:100BE8000625C9E7003C01400000024000380240E9
:100BF800001402402DE9F341044618B9012002B05F
:100C0800BDE8F0810368DD0710D42368980758D43D
:100C180023681A0700F19A8023685B0700F1B880FF
:100C2800A269002A40F019810020E8E7A64B9A68DB
:100C380002F00C02042A07D09A6802F00C02082A73
:100C48000AD15B68590207D59F4B1B689A03DCD50C
:100C58006368002BD9D1D1E763689B4DB3F5803F1A
:100C680011D12B6843F480332B60FFF77BFC964D42
:100C780006462B689B03C8D4FFF774FC801B6428C6
:100C8800F7D90320BBE7B3F5A02F04D12B6843F4B1
:100C980080232B60E5E72A6822F480322A602A68DC
:100CA80022F480222A60002BDFD1FFF75BFC064686
:100CB8002B689F03A9D5FFF755FC801B6428F7D93B
:100CC800DFE7814B9A6812F00C0F07D09A6802F0A0
:100CD8000C02082A11D15B685E020ED47A4B1A689E
:100CE800950702D5E268012A88D11A68216922F09D
:100CF800F80242EAC1021A608AE7E268734BB2B1AD
:100D080001221A60FFF72EFC6F4D06462B689807E4
:100D180007D52B68226923F0F80343EAC2032B6046
:100D280076E7FFF71FFC801B0228EFD9A9E71A60B6
:100D3800FFF718FC644D06462B6899077FF568AFE6
:100D4800FFF710FC801B0228F6D99AE76269604B0E
:100D58007AB101221A60FFF705FC5B4D06466B6FFE
:100D68009F073FF559AFFFF7FDFB801B0228F6D917
:100D780087E71A60FFF7F6FB534D06466B6F980737
:100D88007FF54AAFFFF7EEFB801B0228F6D978E71C
:100D98004D4B1A6C12F0805228D101921A6C42F015
:100DA80080521A641B6C03F080530193019B012647
:100DB800484D2B68D9051BD5A368434D012B27D176
:100DC8002B6F43F001032B67FFF7CCFB3E4D074623
:100DD80041F288382B6F9B0739D5002E3FF420AF9E
:100DE800394A136C23F08053136419E70026DFE7B0
:100DF8002B6843F480732B60FFF7B4FB07462B681E
:100E0800DA05D9D4FFF7AEFBC01B0228F7D938E7BB
:100E1800052B04D12B6F43F004032B67D0E72A6F0F
:100E280022F001022A672A6F22F004022A67002BA7
:100E3800CAD1FFF797FB41F2883807462B6F98070E
:100E4800CBD5FFF78FFBC01B4045F7D919E7FFF754
:100E580089FBC01B4045BDD913E71B4DAB6803F0A8
:100E68000C03082B3FF4CAAE1B4E0023022A336042
:100E780034D1FFF777FB07462B6899011ED4226A05
:100E8800E3691343626A43EA8213E26A43EA02634C
:100E9800A26A0D4C5208013A43EA02436B600123EF
:100EA8003360FFF75FFB054623689A013FF5BCAE48
:100EB800FFF758FB401B0228F6D9E2E6FFF752FB82
:100EC800C01B0228D8D9DCE600380240000047429F
:100ED800800E47420070004060004742FFF742FB27
:100EE80004462B689B017FF59FAEFFF73BFB001B79
:100EF8000228F6D9C5E600BF134908B58B6803F088
:100F08000C03042B03D0082B03D0104808BD10484D
:100F180008BD4A684B68496813F4800314BF0C483D
:100F28000A48C1F3881118BF002302F03F02A1FB51
:100F38000001FFF745F9044B5B68C3F30143013334
:100F48005B00B0FBF3F008BD003802400024F40059
:100F580040787D012DE9F0410D46044610B9012085
:100F6800BDE8F081444B1A6802F00F028A4228D388
:100F780021688F072DD4C80740D43F4B1A6802F068
:100F88000F02954266D3226851076CD4130707D520
:100F98003A4A2169936823F4604343EAC1039360A2
:100FA800FFF7AAFF354B364A9B68C3F30313D35C9C
:100FB800D840344B18600020FFF78AFA0020BDE8BB
:100FC800F081CAB21A701B6803F00F039942C6D1A8
:100FD800CEE72A4B11F0040F1EBF9A6842F4E05284
:100FE8009A600E0742BF9A6842F460429A609A6813
:100FF800A06822F0F00202439A60BCE762681F4BC7
:10100800012A1DD11B6813F4003FA8D01B4EB368FA
:1010180023F003031343B360FFF7A4FA41F28838BF
:101028000746B368626803F00C03B3EB820FA4D0E1
:10103800FFF798FAC01B4045F3D90320BDE8F081BB
:10104800911E01291B6802D813F0007FDDE713F019
:10105800020FDAE7EAB21A701B6803F00F039D4229
:101068007FF47DAF8FE70549E0688B6823F4E05390
:1010780003438B608AE700BF003C0240003802400F
:10108800101400080800002070B51B491B48FFF722
:101098008BFB054678BB1A4C18482668FFF7D4FB2B
:1010A800184B194A23F816001288DFED187A2068C1
:1010B80007EE102A5A881B8806EE902AB8EEC77ADF
:1010C800F8EEE66A27EE277A07EE903A87EE266A68
:1010D80001300F4A0F4B022808BF28462060F8EE5F
:1010E800E77ADFED0D6A82ED006A67EE867A87EEB1
:1010F800A67A83ED007A70BD40420F003C000020C4
:1011080030000020380000202A7AFF1F3333534074
:101118002C0000202800002000F07F4530B595B055
:101128003022002108A800F05BF90021142203A84E
:1011380000F056F900241C4B01941A6C42F08052BE
:101148001A641B6C03F080530193019B174B0294A4
:101158001A6842F480421A601B680F9403F48043B3
:101168000293029B01230B9310230C9308231093E3
:10117800A8230225119308A80423139308950E9514
:101188001295FFF737FD0F2303934FF4A0530693EF
:1011980005214FF4805303A8049505940793FFF79E
:1011A800D9FE15B030BD00BF0038024000700040C5
:1011B800BFB5FFF7B1F90025FFF7B0FF1E4B01954A
:1011C8001A6B1E4C42F001021A631B6B03F00103F9
:1011D80029460193102202A8019B00F001F9184A40
:1011E800A5604FF4803384E80C000126154BA362F8
:1011F800022720462661267684F82050E562E560BD
:10120800E76184F830506661FFF7B2F9032302A959
:101218002046049302950396FFF71AFB112302A9AF
:10122800204602930397FFF713FB2046FFF746FA81
:10123800FFF72AFFFCE700BF003802403C0000200F
:10124800002001400100000F82B00C4B00210091EA
:101258005A6C42F480425A645A6C02F480420092FA
:10126800009A01911A6C42F080521A641B6C03F0C8
:1012780080530193019B02B0704700BF00380240C1
:1012880010B5044688B01422002103A800F0A8F87D
:101298002268124B9A421ED103F58C33002101912A
:1012A8005A6C0F4842F480725A645A6C02F4807285
:1012B8000192019A02911A6B42F001021A631B6BA8
:1012C80003F001030293029B0123039303A9032361
:1012D8000493FFF7AFFB08B010BD00BF002001402A
:1012E800000002407047FEE7FEE7FEE7FEE77047B2
:1012F80070477047FFF72AB90F49D1F8883043F48F
:101308007003C1F888300D4B1A68002042F00102C2
:101318001A6098601A6822F0847222F480321A6087
:10132800074A5A601A6822F480221A60D8604FF07F
:1013380000638B60704700BF00ED00E0003802409A
:1013480010300024DFF834D0002103E00C4B5B5848
:10135800435004310B480C4B42189A42F6D30B4ABF
:1013680002E0002342F8043B094B9A42F9D3FFF705
:10137800C3FF00F011F8FFF71BFF704700000220C1
:1013880030140008000000200C0000200C00002091
:1013980084000020FEE7000070B50D4E0D4CA41B24
:1013A800A4100025A54209D10B4E0C4C00F020F8E2
:1013B800A41BA4100025A54205D170BD56F8253000
:1013C80098470135EEE756F8253098470135F2E79A
:1013D8002814000828140008281400082C140008F1
:1013E80002440346934200D1704703F8011BF9E712
:1013F800F8B500BFF8BC08BC9E467047F8B500BFFA
:08140800F8BC08BC9E467047C9
:1014100000000000000000000102030406070809A4
:08142000D8EDFF7F0100000080
:04142800AD0100080A
:04142C00890100082A
:0C14300001000000100000000024F40087
:040000050800134D8F
:00000001FF
